{
  "contractName": "Etherfund",
  "abi": [
    {
      "inputs": [
        {
          "internalType": "uint256",
          "name": "",
          "type": "uint256"
        }
      ],
      "name": "campaignMoreDetails",
      "outputs": [
        {
          "internalType": "uint256",
          "name": "campaignId",
          "type": "uint256"
        },
        {
          "internalType": "bool",
          "name": "isRequestedToVote",
          "type": "bool"
        },
        {
          "internalType": "bool",
          "name": "isGoalAchieved",
          "type": "bool"
        }
      ],
      "stateMutability": "view",
      "type": "function",
      "constant": true
    },
    {
      "inputs": [
        {
          "internalType": "uint256",
          "name": "",
          "type": "uint256"
        }
      ],
      "name": "campaigns",
      "outputs": [
        {
          "internalType": "uint256",
          "name": "id",
          "type": "uint256"
        },
        {
          "internalType": "uint256",
          "name": "createdAt",
          "type": "uint256"
        },
        {
          "internalType": "address payable",
          "name": "fundRaiser",
          "type": "address"
        },
        {
          "internalType": "string",
          "name": "title",
          "type": "string"
        },
        {
          "internalType": "string",
          "name": "desc",
          "type": "string"
        },
        {
          "internalType": "string",
          "name": "imageURL",
          "type": "string"
        },
        {
          "internalType": "string",
          "name": "category",
          "type": "string"
        },
        {
          "internalType": "uint256",
          "name": "amountRequired",
          "type": "uint256"
        },
        {
          "internalType": "uint256",
          "name": "collectedAmount",
          "type": "uint256"
        },
        {
          "internalType": "uint256",
          "name": "deadline",
          "type": "uint256"
        },
        {
          "internalType": "uint256",
          "name": "noOfVoters",
          "type": "uint256"
        },
        {
          "internalType": "bool",
          "name": "isCompleted",
          "type": "bool"
        }
      ],
      "stateMutability": "view",
      "type": "function",
      "constant": true
    },
    {
      "inputs": [
        {
          "internalType": "uint256",
          "name": "",
          "type": "uint256"
        },
        {
          "internalType": "uint256",
          "name": "",
          "type": "uint256"
        }
      ],
      "name": "contributors",
      "outputs": [
        {
          "internalType": "address",
          "name": "contributor",
          "type": "address"
        },
        {
          "internalType": "uint256",
          "name": "amountContributed",
          "type": "uint256"
        }
      ],
      "stateMutability": "view",
      "type": "function",
      "constant": true
    },
    {
      "inputs": [
        {
          "internalType": "address",
          "name": "",
          "type": "address"
        },
        {
          "internalType": "uint256",
          "name": "",
          "type": "uint256"
        }
      ],
      "name": "requests",
      "outputs": [
        {
          "internalType": "uint256",
          "name": "campaignId",
          "type": "uint256"
        },
        {
          "internalType": "address",
          "name": "fundRaiser",
          "type": "address"
        },
        {
          "internalType": "uint256",
          "name": "amount",
          "type": "uint256"
        },
        {
          "internalType": "uint256",
          "name": "deadline",
          "type": "uint256"
        },
        {
          "internalType": "bool",
          "name": "isVoted",
          "type": "bool"
        }
      ],
      "stateMutability": "view",
      "type": "function",
      "constant": true
    },
    {
      "inputs": [
        {
          "internalType": "string",
          "name": "_title",
          "type": "string"
        },
        {
          "internalType": "string",
          "name": "_desc",
          "type": "string"
        },
        {
          "internalType": "string",
          "name": "_category",
          "type": "string"
        },
        {
          "internalType": "string",
          "name": "_imageURL",
          "type": "string"
        },
        {
          "internalType": "uint256",
          "name": "_deadline",
          "type": "uint256"
        },
        {
          "internalType": "uint256",
          "name": "_amountRequired",
          "type": "uint256"
        }
      ],
      "name": "createCampaign",
      "outputs": [],
      "stateMutability": "nonpayable",
      "type": "function"
    },
    {
      "inputs": [
        {
          "internalType": "uint256",
          "name": "campaignId",
          "type": "uint256"
        }
      ],
      "name": "contribute",
      "outputs": [
        {
          "components": [
            {
              "internalType": "address",
              "name": "contributor",
              "type": "address"
            },
            {
              "internalType": "uint256",
              "name": "amountContributed",
              "type": "uint256"
            }
          ],
          "internalType": "struct Etherfund.Contributor",
          "name": "contributed",
          "type": "tuple"
        }
      ],
      "stateMutability": "payable",
      "type": "function",
      "payable": true
    },
    {
      "inputs": [
        {
          "internalType": "uint256",
          "name": "_campaignId",
          "type": "uint256"
        }
      ],
      "name": "requestVote",
      "outputs": [],
      "stateMutability": "nonpayable",
      "type": "function"
    },
    {
      "inputs": [
        {
          "internalType": "uint256",
          "name": "campaignId",
          "type": "uint256"
        }
      ],
      "name": "voteForCampaign",
      "outputs": [],
      "stateMutability": "nonpayable",
      "type": "function"
    },
    {
      "inputs": [
        {
          "internalType": "uint256",
          "name": "campaignId",
          "type": "uint256"
        }
      ],
      "name": "withdrawEther",
      "outputs": [],
      "stateMutability": "nonpayable",
      "type": "function"
    },
    {
      "inputs": [],
      "name": "getIncompleteCampaigns",
      "outputs": [
        {
          "components": [
            {
              "internalType": "uint256",
              "name": "id",
              "type": "uint256"
            },
            {
              "internalType": "uint256",
              "name": "createdAt",
              "type": "uint256"
            },
            {
              "internalType": "address payable",
              "name": "fundRaiser",
              "type": "address"
            },
            {
              "internalType": "string",
              "name": "title",
              "type": "string"
            },
            {
              "internalType": "string",
              "name": "desc",
              "type": "string"
            },
            {
              "internalType": "string",
              "name": "imageURL",
              "type": "string"
            },
            {
              "internalType": "string",
              "name": "category",
              "type": "string"
            },
            {
              "internalType": "uint256",
              "name": "amountRequired",
              "type": "uint256"
            },
            {
              "internalType": "uint256",
              "name": "collectedAmount",
              "type": "uint256"
            },
            {
              "internalType": "uint256",
              "name": "deadline",
              "type": "uint256"
            },
            {
              "internalType": "uint256",
              "name": "noOfVoters",
              "type": "uint256"
            },
            {
              "internalType": "bool",
              "name": "isCompleted",
              "type": "bool"
            }
          ],
          "internalType": "struct Etherfund.Campaign[]",
          "name": "",
          "type": "tuple[]"
        }
      ],
      "stateMutability": "view",
      "type": "function",
      "constant": true
    },
    {
      "inputs": [],
      "name": "getMyCampaigns",
      "outputs": [
        {
          "components": [
            {
              "internalType": "uint256",
              "name": "id",
              "type": "uint256"
            },
            {
              "internalType": "uint256",
              "name": "createdAt",
              "type": "uint256"
            },
            {
              "internalType": "address payable",
              "name": "fundRaiser",
              "type": "address"
            },
            {
              "internalType": "string",
              "name": "title",
              "type": "string"
            },
            {
              "internalType": "string",
              "name": "desc",
              "type": "string"
            },
            {
              "internalType": "string",
              "name": "imageURL",
              "type": "string"
            },
            {
              "internalType": "string",
              "name": "category",
              "type": "string"
            },
            {
              "internalType": "uint256",
              "name": "amountRequired",
              "type": "uint256"
            },
            {
              "internalType": "uint256",
              "name": "collectedAmount",
              "type": "uint256"
            },
            {
              "internalType": "uint256",
              "name": "deadline",
              "type": "uint256"
            },
            {
              "internalType": "uint256",
              "name": "noOfVoters",
              "type": "uint256"
            },
            {
              "internalType": "bool",
              "name": "isCompleted",
              "type": "bool"
            }
          ],
          "internalType": "struct Etherfund.Campaign[]",
          "name": "",
          "type": "tuple[]"
        }
      ],
      "stateMutability": "view",
      "type": "function",
      "constant": true
    },
    {
      "inputs": [],
      "name": "getMyRequests",
      "outputs": [
        {
          "components": [
            {
              "internalType": "uint256",
              "name": "campaignId",
              "type": "uint256"
            },
            {
              "internalType": "address",
              "name": "fundRaiser",
              "type": "address"
            },
            {
              "internalType": "uint256",
              "name": "amount",
              "type": "uint256"
            },
            {
              "internalType": "uint256",
              "name": "deadline",
              "type": "uint256"
            },
            {
              "internalType": "bool",
              "name": "isVoted",
              "type": "bool"
            }
          ],
          "internalType": "struct Etherfund.Request[]",
          "name": "",
          "type": "tuple[]"
        }
      ],
      "stateMutability": "view",
      "type": "function",
      "constant": true
    },
    {
      "inputs": [
        {
          "internalType": "uint256",
          "name": "_campaignId",
          "type": "uint256"
        }
      ],
      "name": "getCampaignDetails",
      "outputs": [
        {
          "components": [
            {
              "internalType": "uint256",
              "name": "id",
              "type": "uint256"
            },
            {
              "internalType": "uint256",
              "name": "createdAt",
              "type": "uint256"
            },
            {
              "internalType": "address payable",
              "name": "fundRaiser",
              "type": "address"
            },
            {
              "internalType": "string",
              "name": "title",
              "type": "string"
            },
            {
              "internalType": "string",
              "name": "desc",
              "type": "string"
            },
            {
              "internalType": "string",
              "name": "imageURL",
              "type": "string"
            },
            {
              "internalType": "string",
              "name": "category",
              "type": "string"
            },
            {
              "internalType": "uint256",
              "name": "amountRequired",
              "type": "uint256"
            },
            {
              "internalType": "uint256",
              "name": "collectedAmount",
              "type": "uint256"
            },
            {
              "internalType": "uint256",
              "name": "deadline",
              "type": "uint256"
            },
            {
              "internalType": "uint256",
              "name": "noOfVoters",
              "type": "uint256"
            },
            {
              "internalType": "bool",
              "name": "isCompleted",
              "type": "bool"
            }
          ],
          "internalType": "struct Etherfund.Campaign",
          "name": "",
          "type": "tuple"
        }
      ],
      "stateMutability": "view",
      "type": "function",
      "constant": true
    },
    {
      "inputs": [
        {
          "internalType": "uint256",
          "name": "_campaignId",
          "type": "uint256"
        }
      ],
      "name": "getCampaignMoreDetails",
      "outputs": [
        {
          "components": [
            {
              "internalType": "uint256",
              "name": "campaignId",
              "type": "uint256"
            },
            {
              "internalType": "bool",
              "name": "isRequestedToVote",
              "type": "bool"
            },
            {
              "internalType": "bool",
              "name": "isGoalAchieved",
              "type": "bool"
            }
          ],
          "internalType": "struct Etherfund.CampaignMoreDetails",
          "name": "",
          "type": "tuple"
        }
      ],
      "stateMutability": "view",
      "type": "function",
      "constant": true
    },
    {
      "inputs": [
        {
          "internalType": "uint256",
          "name": "_campaignId",
          "type": "uint256"
        }
      ],
      "name": "getWithdrawStatus",
      "outputs": [
        {
          "internalType": "bool",
          "name": "",
          "type": "bool"
        }
      ],
      "stateMutability": "view",
      "type": "function",
      "constant": true
    }
  ],
  "bytecode": "0x60806040526706f05b59d3b20000600055600060015534801561002157600080fd5b5061397a806100316000396000f3fe6080604052600436106100e85760003560e01c806391eace8b1161008a578063bf80627111610059578063bf8062711461032c578063c1cbbca714610369578063c956ad6314610399578063d993de62146103c2576100e8565b806391eace8b1461026e5780639ecebe2a14610299578063a8aee940146102da578063bcb94fb914610303576100e8565b806342b90fc8116100c657806342b90fc81461019d57806354346b66146101c85780637eb452a51461020657806382bea0ca14610243576100e8565b8063141961bc146100ed5780633276f36f146101355780633bed33ce14610174575b600080fd5b3480156100f957600080fd5b50610114600480360381019061010f919061264f565b6103ff565b60405161012c9c9b9a99989796959493929190612777565b60405180910390f35b34801561014157600080fd5b5061015c6004803603810190610157919061264f565b6106bc565b60405161016b9392919061284d565b60405180910390f35b34801561018057600080fd5b5061019b6004803603810190610196919061264f565b610710565b005b3480156101a957600080fd5b506101b261093e565b6040516101bf9190612ad6565b60405180910390f35b3480156101d457600080fd5b506101ef60048036038101906101ea9190612af8565b610db8565b6040516101fd929190612b59565b60405180910390f35b34801561021257600080fd5b5061022d6004803603810190610228919061264f565b610e19565b60405161023a9190612bc4565b60405180910390f35b34801561024f57600080fd5b50610258610e95565b6040516102659190612ad6565b60405180910390f35b34801561027a57600080fd5b5061028361138c565b6040516102909190612d05565b60405180910390f35b3480156102a557600080fd5b506102c060048036038101906102bb9190612d53565b6114b7565b6040516102d1959493929190612d93565b60405180910390f35b3480156102e657600080fd5b5061030160048036038101906102fc9190612f1b565b611537565b005b34801561030f57600080fd5b5061032a6004803603810190610325919061264f565b6117ee565b005b34801561033857600080fd5b50610353600480360381019061034e919061264f565b61193e565b6040516103609190613018565b60405180910390f35b610383600480360381019061037e919061264f565b611991565b6040516103909190613062565b60405180910390f35b3480156103a557600080fd5b506103c060048036038101906103bb919061264f565b611e0b565b005b3480156103ce57600080fd5b506103e960048036038101906103e4919061264f565b612205565b6040516103f69190613196565b60405180910390f35b6002818154811061040f57600080fd5b90600052602060002090600c02016000915090508060000154908060010154908060020160009054906101000a900473ffffffffffffffffffffffffffffffffffffffff1690806003018054610464906131e7565b80601f0160208091040260200160405190810160405280929190818152602001828054610490906131e7565b80156104dd5780601f106104b2576101008083540402835291602001916104dd565b820191906000526020600020905b8154815290600101906020018083116104c057829003601f168201915b5050505050908060040180546104f2906131e7565b80601f016020809104026020016040519081016040528092919081815260200182805461051e906131e7565b801561056b5780601f106105405761010080835404028352916020019161056b565b820191906000526020600020905b81548152906001019060200180831161054e57829003601f168201915b505050505090806005018054610580906131e7565b80601f01602080910402602001604051908101604052809291908181526020018280546105ac906131e7565b80156105f95780601f106105ce576101008083540402835291602001916105f9565b820191906000526020600020905b8154815290600101906020018083116105dc57829003601f168201915b50505050509080600601805461060e906131e7565b80601f016020809104026020016040519081016040528092919081815260200182805461063a906131e7565b80156106875780601f1061065c57610100808354040283529160200191610687565b820191906000526020600020905b81548152906001019060200180831161066a57829003601f168201915b50505050509080600701549080600801549080600901549080600a01549080600b0160009054906101000a900460ff1690508c565b600381815481106106cc57600080fd5b90600052602060002090600202016000915090508060000154908060010160009054906101000a900460ff16908060010160019054906101000a900460ff16905083565b6002818154811061072457610723613218565b5b90600052602060002090600c020160020160009054906101000a900473ffffffffffffffffffffffffffffffffffffffff1673ffffffffffffffffffffffffffffffffffffffff163373ffffffffffffffffffffffffffffffffffffffff16146107c3576040517f08c379a00000000000000000000000000000000000000000000000000000000081526004016107ba90613293565b60405180910390fd5b600260046000838152602001908152602001600020805490506107e69190613311565b600282815481106107fa576107f9613218565b5b90600052602060002090600c0201600a01541161084c576040517f08c379a00000000000000000000000000000000000000000000000000000000081526004016108439061338e565b60405180910390fd5b600281815481106108605761085f613218565b5b90600052602060002090600c020160020160009054906101000a900473ffffffffffffffffffffffffffffffffffffffff1673ffffffffffffffffffffffffffffffffffffffff166108fc600283815481106108bf576108be613218565b5b90600052602060002090600c0201600701549081150290604051600060405180830381858888f193505050501580156108fc573d6000803e3d6000fd5b5060016002828154811061091357610912613218565b5b90600052602060002090600c0201600b0160006101000a81548160ff02191690831515021790555050565b60606000805b6002805490508110156109aa576002818154811061096557610964613218565b5b90600052602060002090600c0201600b0160009054906101000a900460ff16610997578180610993906133ae565b9250505b80806109a2906133ae565b915050610944565b5060008167ffffffffffffffff8111156109c7576109c6612df0565b5b604051908082528060200260200182016040528015610a0057816020015b6109ed612537565b8152602001906001900390816109e55790505b5090506000805b600280549050811015610dae5760028181548110610a2857610a27613218565b5b90600052602060002090600c0201600b0160009054906101000a900460ff16610d9b5760028181548110610a5f57610a5e613218565b5b90600052602060002090600c02016040518061018001604052908160008201548152602001600182015481526020016002820160009054906101000a900473ffffffffffffffffffffffffffffffffffffffff1673ffffffffffffffffffffffffffffffffffffffff1673ffffffffffffffffffffffffffffffffffffffff168152602001600382018054610af3906131e7565b80601f0160208091040260200160405190810160405280929190818152602001828054610b1f906131e7565b8015610b6c5780601f10610b4157610100808354040283529160200191610b6c565b820191906000526020600020905b815481529060010190602001808311610b4f57829003601f168201915b50505050508152602001600482018054610b85906131e7565b80601f0160208091040260200160405190810160405280929190818152602001828054610bb1906131e7565b8015610bfe5780601f10610bd357610100808354040283529160200191610bfe565b820191906000526020600020905b815481529060010190602001808311610be157829003601f168201915b50505050508152602001600582018054610c17906131e7565b80601f0160208091040260200160405190810160405280929190818152602001828054610c43906131e7565b8015610c905780601f10610c6557610100808354040283529160200191610c90565b820191906000526020600020905b815481529060010190602001808311610c7357829003601f168201915b50505050508152602001600682018054610ca9906131e7565b80601f0160208091040260200160405190810160405280929190818152602001828054610cd5906131e7565b8015610d225780601f10610cf757610100808354040283529160200191610d22565b820191906000526020600020905b815481529060010190602001808311610d0557829003601f168201915b50505050508152602001600782015481526020016008820154815260200160098201548152602001600a8201548152602001600b820160009054906101000a900460ff161515151581525050838381518110610d8157610d80613218565b5b60200260200101819052508180610d97906133ae565b9250505b8080610da6906133ae565b915050610a07565b5081935050505090565b60046020528160005260406000208181548110610dd457600080fd5b9060005260206000209060020201600091509150508060000160009054906101000a900473ffffffffffffffffffffffffffffffffffffffff16908060010154905082565b610e216125b0565b60038281548110610e3557610e34613218565b5b9060005260206000209060020201604051806060016040529081600082015481526020016001820160009054906101000a900460ff161515151581526020016001820160019054906101000a900460ff1615151515815250509050919050565b60606000805b600280549050811015610f42573373ffffffffffffffffffffffffffffffffffffffff1660028281548110610ed357610ed2613218565b5b90600052602060002090600c020160020160009054906101000a900473ffffffffffffffffffffffffffffffffffffffff1673ffffffffffffffffffffffffffffffffffffffff1603610f2f578180610f2b906133ae565b9250505b8080610f3a906133ae565b915050610e9b565b5060008167ffffffffffffffff811115610f5f57610f5e612df0565b5b604051908082528060200260200182016040528015610f9857816020015b610f85612537565b815260200190600190039081610f7d5790505b5090506000805b83811015611382573373ffffffffffffffffffffffffffffffffffffffff1660028281548110610fd257610fd1613218565b5b90600052602060002090600c020160020160009054906101000a900473ffffffffffffffffffffffffffffffffffffffff1673ffffffffffffffffffffffffffffffffffffffff160361136f576002818154811061103357611032613218565b5b90600052602060002090600c02016040518061018001604052908160008201548152602001600182015481526020016002820160009054906101000a900473ffffffffffffffffffffffffffffffffffffffff1673ffffffffffffffffffffffffffffffffffffffff1673ffffffffffffffffffffffffffffffffffffffff1681526020016003820180546110c7906131e7565b80601f01602080910402602001604051908101604052809291908181526020018280546110f3906131e7565b80156111405780601f1061111557610100808354040283529160200191611140565b820191906000526020600020905b81548152906001019060200180831161112357829003601f168201915b50505050508152602001600482018054611159906131e7565b80601f0160208091040260200160405190810160405280929190818152602001828054611185906131e7565b80156111d25780601f106111a7576101008083540402835291602001916111d2565b820191906000526020600020905b8154815290600101906020018083116111b557829003601f168201915b505050505081526020016005820180546111eb906131e7565b80601f0160208091040260200160405190810160405280929190818152602001828054611217906131e7565b80156112645780601f1061123957610100808354040283529160200191611264565b820191906000526020600020905b81548152906001019060200180831161124757829003601f168201915b5050505050815260200160068201805461127d906131e7565b80601f01602080910402602001604051908101604052809291908181526020018280546112a9906131e7565b80156112f65780601f106112cb576101008083540402835291602001916112f6565b820191906000526020600020905b8154815290600101906020018083116112d957829003601f168201915b50505050508152602001600782015481526020016008820154815260200160098201548152602001600a8201548152602001600b820160009054906101000a900460ff16151515158152505083838151811061135557611354613218565b5b6020026020010181905250818061136b906133ae565b9250505b808061137a906133ae565b915050610f9f565b5081935050505090565b6060600560003373ffffffffffffffffffffffffffffffffffffffff1673ffffffffffffffffffffffffffffffffffffffff168152602001908152602001600020805480602002602001604051908101604052809291908181526020016000905b828210156114ae57838290600052602060002090600502016040518060a0016040529081600082015481526020016001820160009054906101000a900473ffffffffffffffffffffffffffffffffffffffff1673ffffffffffffffffffffffffffffffffffffffff1673ffffffffffffffffffffffffffffffffffffffff16815260200160028201548152602001600382015481526020016004820160009054906101000a900460ff161515151581525050815260200190600101906113ed565b50505050905090565b600560205281600052604060002081815481106114d357600080fd5b9060005260206000209060050201600091509150508060000154908060010160009054906101000a900473ffffffffffffffffffffffffffffffffffffffff16908060020154908060030154908060040160009054906101000a900460ff16905085565b60006202a3009050804261154b91906133f6565b831161158c576040517f08c379a00000000000000000000000000000000000000000000000000000000081526004016115839061349c565b60405180910390fd5b600060405180610180016040528060015481526020014281526020013373ffffffffffffffffffffffffffffffffffffffff168152602001898152602001888152602001868152602001878152602001848152602001600081526020018581526020016000815260200160001515815250905060028190806001815401808255809150506001900390600052602060002090600c0201600090919091909150600082015181600001556020820151816001015560408201518160020160006101000a81548173ffffffffffffffffffffffffffffffffffffffff021916908373ffffffffffffffffffffffffffffffffffffffff160217905550606082015181600301908161169b9190613668565b5060808201518160040190816116b19190613668565b5060a08201518160050190816116c79190613668565b5060c08201518160060190816116dd9190613668565b5060e082015181600701556101008201518160080155610120820151816009015561014082015181600a015561016082015181600b0160006101000a81548160ff021916908315150217905550505060006040518060600160405280600154815260200160001515815260200160001515815250905060038190806001815401808255809150506001900390600052602060002090600202016000909190919091506000820151816000015560208201518160010160006101000a81548160ff02191690831515021790555060408201518160010160016101000a81548160ff0219169083151502179055505050600160008154809291906117de906133ae565b9190505550505050505050505050565b6000600560003373ffffffffffffffffffffffffffffffffffffffff1673ffffffffffffffffffffffffffffffffffffffff168152602001908152602001600020905060005b8180549050811015611939578282828154811061185457611853613218565b5b9060005260206000209060050201600001541480156118a857506000151582828154811061188557611884613218565b5b906000526020600020906005020160040160009054906101000a900460ff161515145b156119265760018282815481106118c2576118c1613218565b5b906000526020600020906005020160040160006101000a81548160ff021916908315150217905550600283815481106118fe576118fd613218565b5b90600052602060002090600c0201600a016000815480929190611920906133ae565b91905055505b8080611931906133ae565b915050611834565b505050565b6000600260046000848152602001908152602001600020805490506119639190613311565b6002838154811061197757611976613218565b5b90600052602060002090600c0201600a0154119050919050565b6119996125d5565b6000543410156119de576040517f08c379a00000000000000000000000000000000000000000000000000000000081526004016119d5906137ac565b60405180910390fd5b60001515600383815481106119f6576119f5613218565b5b906000526020600020906002020160010160019054906101000a900460ff16151514611a57576040517f08c379a0000000000000000000000000000000000000000000000000000000008152600401611a4e90613818565b60405180910390fd5b3460028381548110611a6c57611a6b613218565b5b90600052602060002090600c02016008016000828254611a8c9190613838565b92505081905550600060019050600060046000858152602001908152602001600020905060005b8180549050811015611b8d573373ffffffffffffffffffffffffffffffffffffffff16828281548110611ae957611ae8613218565b5b906000526020600020906002020160000160009054906101000a900473ffffffffffffffffffffffffffffffffffffffff1673ffffffffffffffffffffffffffffffffffffffff1603611b7a5734828281548110611b4a57611b49613218565b5b90600052602060002090600202016001016000828254611b6a9190613838565b9250508190555060009250611b8d565b8080611b85906133ae565b915050611ab3565b508115611c4357600060405180604001604052803373ffffffffffffffffffffffffffffffffffffffff1681526020013481525090508181908060018154018082558091505060019003906000526020600020906002020160009091909190915060008201518160000160006101000a81548173ffffffffffffffffffffffffffffffffffffffff021916908373ffffffffffffffffffffffffffffffffffffffff160217905550602082015181600101555050505b60028481548110611c5757611c56613218565b5b90600052602060002090600c02016007015460028581548110611c7d57611c7c613218565b5b90600052602060002090600c02016008015410611cd357600160038581548110611caa57611ca9613218565b5b906000526020600020906002020160010160016101000a81548160ff0219169083151502179055505b60005b8180549050811015611e02573373ffffffffffffffffffffffffffffffffffffffff16828281548110611d0c57611d0b613218565b5b906000526020600020906002020160000160009054906101000a900473ffffffffffffffffffffffffffffffffffffffff1673ffffffffffffffffffffffffffffffffffffffff1603611def57818181548110611d6c57611d6b613218565b5b90600052602060002090600202016040518060400160405290816000820160009054906101000a900473ffffffffffffffffffffffffffffffffffffffff1673ffffffffffffffffffffffffffffffffffffffff1673ffffffffffffffffffffffffffffffffffffffff1681526020016001820154815250509350505050611e06565b8080611dfa906133ae565b915050611cd6565b5050505b919050565b3373ffffffffffffffffffffffffffffffffffffffff1660028281548110611e3657611e35613218565b5b90600052602060002090600c020160020160009054906101000a900473ffffffffffffffffffffffffffffffffffffffff1673ffffffffffffffffffffffffffffffffffffffff1614611ebe576040517f08c379a0000000000000000000000000000000000000000000000000000000008152600401611eb590613293565b60405180910390fd5b60028181548110611ed257611ed1613218565b5b90600052602060002090600c02016007015460028281548110611ef857611ef7613218565b5b90600052602060002090600c0201600801541015611f4b576040517f08c379a0000000000000000000000000000000000000000000000000000000008152600401611f42906138b8565b60405180910390fd5b600160038281548110611f6157611f60613218565b5b906000526020600020906002020160010160006101000a81548160ff0219169083151502179055611fc7576040517f08c379a0000000000000000000000000000000000000000000000000000000008152600401611fbe90613924565b60405180910390fd5b600060046000838152602001908152602001600020905060005b81805490508110156121c25760006040518060a001604052808581526020013373ffffffffffffffffffffffffffffffffffffffff16815260200184848154811061202f5761202e613218565b5b90600052602060002090600202016001015481526020016002868154811061205a57612059613218565b5b90600052602060002090600c02016009015481526020016000151581525090506005600084848154811061209157612090613218565b5b906000526020600020906002020160000160009054906101000a900473ffffffffffffffffffffffffffffffffffffffff1673ffffffffffffffffffffffffffffffffffffffff1673ffffffffffffffffffffffffffffffffffffffff1681526020019081526020016000208190806001815401808255809150506001900390600052602060002090600502016000909190919091506000820151816000015560208201518160010160006101000a81548173ffffffffffffffffffffffffffffffffffffffff021916908373ffffffffffffffffffffffffffffffffffffffff160217905550604082015181600201556060820151816003015560808201518160040160006101000a81548160ff02191690831515021790555050505080806121ba906133ae565b915050611fe1565b506001600383815481106121d9576121d8613218565b5b906000526020600020906002020160010160006101000a81548160ff0219169083151502179055505050565b61220d612537565b6002828154811061222157612220613218565b5b90600052602060002090600c02016040518061018001604052908160008201548152602001600182015481526020016002820160009054906101000a900473ffffffffffffffffffffffffffffffffffffffff1673ffffffffffffffffffffffffffffffffffffffff1673ffffffffffffffffffffffffffffffffffffffff1681526020016003820180546122b5906131e7565b80601f01602080910402602001604051908101604052809291908181526020018280546122e1906131e7565b801561232e5780601f106123035761010080835404028352916020019161232e565b820191906000526020600020905b81548152906001019060200180831161231157829003601f168201915b50505050508152602001600482018054612347906131e7565b80601f0160208091040260200160405190810160405280929190818152602001828054612373906131e7565b80156123c05780601f10612395576101008083540402835291602001916123c0565b820191906000526020600020905b8154815290600101906020018083116123a357829003601f168201915b505050505081526020016005820180546123d9906131e7565b80601f0160208091040260200160405190810160405280929190818152602001828054612405906131e7565b80156124525780601f1061242757610100808354040283529160200191612452565b820191906000526020600020905b81548152906001019060200180831161243557829003601f168201915b5050505050815260200160068201805461246b906131e7565b80601f0160208091040260200160405190810160405280929190818152602001828054612497906131e7565b80156124e45780601f106124b9576101008083540402835291602001916124e4565b820191906000526020600020905b8154815290600101906020018083116124c757829003601f168201915b50505050508152602001600782015481526020016008820154815260200160098201548152602001600a8201548152602001600b820160009054906101000a900460ff1615151515815250509050919050565b6040518061018001604052806000815260200160008152602001600073ffffffffffffffffffffffffffffffffffffffff16815260200160608152602001606081526020016060815260200160608152602001600081526020016000815260200160008152602001600081526020016000151581525090565b6040518060600160405280600081526020016000151581526020016000151581525090565b6040518060400160405280600073ffffffffffffffffffffffffffffffffffffffff168152602001600081525090565b6000604051905090565b600080fd5b600080fd5b6000819050919050565b61262c81612619565b811461263757600080fd5b50565b60008135905061264981612623565b92915050565b6000602082840312156126655761266461260f565b5b60006126738482850161263a565b91505092915050565b61268581612619565b82525050565b600073ffffffffffffffffffffffffffffffffffffffff82169050919050565b60006126b68261268b565b9050919050565b6126c6816126ab565b82525050565b600081519050919050565b600082825260208201905092915050565b60005b838110156127065780820151818401526020810190506126eb565b60008484015250505050565b6000601f19601f8301169050919050565b600061272e826126cc565b61273881856126d7565b93506127488185602086016126e8565b61275181612712565b840191505092915050565b60008115159050919050565b6127718161275c565b82525050565b60006101808201905061278d600083018f61267c565b61279a602083018e61267c565b6127a7604083018d6126bd565b81810360608301526127b9818c612723565b905081810360808301526127cd818b612723565b905081810360a08301526127e1818a612723565b905081810360c08301526127f58189612723565b905061280460e083018861267c565b61281261010083018761267c565b61282061012083018661267c565b61282e61014083018561267c565b61283c610160830184612768565b9d9c50505050505050505050505050565b6000606082019050612862600083018661267c565b61286f6020830185612768565b61287c6040830184612768565b949350505050565b600081519050919050565b600082825260208201905092915050565b6000819050602082019050919050565b6128b981612619565b82525050565b6128c8816126ab565b82525050565b600082825260208201905092915050565b60006128ea826126cc565b6128f481856128ce565b93506129048185602086016126e8565b61290d81612712565b840191505092915050565b6129218161275c565b82525050565b60006101808301600083015161294060008601826128b0565b50602083015161295360208601826128b0565b50604083015161296660408601826128bf565b506060830151848203606086015261297e82826128df565b9150506080830151848203608086015261299882826128df565b91505060a083015184820360a08601526129b282826128df565b91505060c083015184820360c08601526129cc82826128df565b91505060e08301516129e160e08601826128b0565b506101008301516129f66101008601826128b0565b50610120830151612a0b6101208601826128b0565b50610140830151612a206101408601826128b0565b50610160830151612a35610160860182612918565b508091505092915050565b6000612a4c8383612927565b905092915050565b6000602082019050919050565b6000612a6c82612884565b612a76818561288f565b935083602082028501612a88856128a0565b8060005b85811015612ac45784840389528151612aa58582612a40565b9450612ab083612a54565b925060208a01995050600181019050612a8c565b50829750879550505050505092915050565b60006020820190508181036000830152612af08184612a61565b905092915050565b60008060408385031215612b0f57612b0e61260f565b5b6000612b1d8582860161263a565b9250506020612b2e8582860161263a565b9150509250929050565b6000612b438261268b565b9050919050565b612b5381612b38565b82525050565b6000604082019050612b6e6000830185612b4a565b612b7b602083018461267c565b9392505050565b606082016000820151612b9860008501826128b0565b506020820151612bab6020850182612918565b506040820151612bbe6040850182612918565b50505050565b6000606082019050612bd96000830184612b82565b92915050565b600081519050919050565b600082825260208201905092915050565b6000819050602082019050919050565b612c1481612b38565b82525050565b60a082016000820151612c3060008501826128b0565b506020820151612c436020850182612c0b565b506040820151612c5660408501826128b0565b506060820151612c6960608501826128b0565b506080820151612c7c6080850182612918565b50505050565b6000612c8e8383612c1a565b60a08301905092915050565b6000602082019050919050565b6000612cb282612bdf565b612cbc8185612bea565b9350612cc783612bfb565b8060005b83811015612cf8578151612cdf8882612c82565b9750612cea83612c9a565b925050600181019050612ccb565b5085935050505092915050565b60006020820190508181036000830152612d1f8184612ca7565b905092915050565b612d3081612b38565b8114612d3b57600080fd5b50565b600081359050612d4d81612d27565b92915050565b60008060408385031215612d6a57612d6961260f565b5b6000612d7885828601612d3e565b9250506020612d898582860161263a565b9150509250929050565b600060a082019050612da8600083018861267c565b612db56020830187612b4a565b612dc2604083018661267c565b612dcf606083018561267c565b612ddc6080830184612768565b9695505050505050565b600080fd5b600080fd5b7f4e487b7100000000000000000000000000000000000000000000000000000000600052604160045260246000fd5b612e2882612712565b810181811067ffffffffffffffff82111715612e4757612e46612df0565b5b80604052505050565b6000612e5a612605565b9050612e668282612e1f565b919050565b600067ffffffffffffffff821115612e8657612e85612df0565b5b612e8f82612712565b9050602081019050919050565b82818337600083830152505050565b6000612ebe612eb984612e6b565b612e50565b905082815260208101848484011115612eda57612ed9612deb565b5b612ee5848285612e9c565b509392505050565b600082601f830112612f0257612f01612de6565b5b8135612f12848260208601612eab565b91505092915050565b60008060008060008060c08789031215612f3857612f3761260f565b5b600087013567ffffffffffffffff811115612f5657612f55612614565b5b612f6289828a01612eed565b965050602087013567ffffffffffffffff811115612f8357612f82612614565b5b612f8f89828a01612eed565b955050604087013567ffffffffffffffff811115612fb057612faf612614565b5b612fbc89828a01612eed565b945050606087013567ffffffffffffffff811115612fdd57612fdc612614565b5b612fe989828a01612eed565b9350506080612ffa89828a0161263a565b92505060a061300b89828a0161263a565b9150509295509295509295565b600060208201905061302d6000830184612768565b92915050565b6040820160008201516130496000850182612c0b565b50602082015161305c60208501826128b0565b50505050565b60006040820190506130776000830184613033565b92915050565b60006101808301600083015161309660008601826128b0565b5060208301516130a960208601826128b0565b5060408301516130bc60408601826128bf565b50606083015184820360608601526130d482826128df565b915050608083015184820360808601526130ee82826128df565b91505060a083015184820360a086015261310882826128df565b91505060c083015184820360c086015261312282826128df565b91505060e083015161313760e08601826128b0565b5061010083015161314c6101008601826128b0565b506101208301516131616101208601826128b0565b506101408301516131766101408601826128b0565b5061016083015161318b610160860182612918565b508091505092915050565b600060208201905081810360008301526131b0818461307d565b905092915050565b7f4e487b7100000000000000000000000000000000000000000000000000000000600052602260045260246000fd5b600060028204905060018216806131ff57607f821691505b602082108103613212576132116131b8565b5b50919050565b7f4e487b7100000000000000000000000000000000000000000000000000000000600052603260045260246000fd5b7f596f7520617265206e6f74207468652066756e64726169736572000000000000600082015250565b600061327d601a836126d7565b915061328882613247565b602082019050919050565b600060208201905081810360008301526132ac81613270565b9050919050565b7f4e487b7100000000000000000000000000000000000000000000000000000000600052601260045260246000fd5b7f4e487b7100000000000000000000000000000000000000000000000000000000600052601160045260246000fd5b600061331c82612619565b915061332783612619565b925082613337576133366132b3565b5b828204905092915050565b7f4e6f7420656e6f75676820766f746520746f2077697468647261770000000000600082015250565b6000613378601b836126d7565b915061338382613342565b602082019050919050565b600060208201905081810360008301526133a78161336b565b9050919050565b60006133b982612619565b91507fffffffffffffffffffffffffffffffffffffffffffffffffffffffffffffffff82036133eb576133ea6132e2565b5b600182019050919050565b600061340182612619565b915061340c83612619565b9250828203905081811115613424576134236132e2565b5b92915050565b7f50726f6a656374206d75737420626520706f73746564206265666f726520747760008201527f6f20646179730000000000000000000000000000000000000000000000000000602082015250565b60006134866026836126d7565b91506134918261342a565b604082019050919050565b600060208201905081810360008301526134b581613479565b9050919050565b60008190508160005260206000209050919050565b60006020601f8301049050919050565b600082821b905092915050565b60006008830261351e7fffffffffffffffffffffffffffffffffffffffffffffffffffffffffffffffff826134e1565b61352886836134e1565b95508019841693508086168417925050509392505050565b6000819050919050565b600061356561356061355b84612619565b613540565b612619565b9050919050565b6000819050919050565b61357f8361354a565b61359361358b8261356c565b8484546134ee565b825550505050565b600090565b6135a861359b565b6135b3818484613576565b505050565b5b818110156135d7576135cc6000826135a0565b6001810190506135b9565b5050565b601f82111561361c576135ed816134bc565b6135f6846134d1565b81016020851015613605578190505b613619613611856134d1565b8301826135b8565b50505b505050565b600082821c905092915050565b600061363f60001984600802613621565b1980831691505092915050565b6000613658838361362e565b9150826002028217905092915050565b613671826126cc565b67ffffffffffffffff81111561368a57613689612df0565b5b61369482546131e7565b61369f8282856135db565b600060209050601f8311600181146136d257600084156136c0578287015190505b6136ca858261364c565b865550613732565b601f1984166136e0866134bc565b60005b82811015613708578489015182556001820191506020850194506020810190506136e3565b868310156137255784890151613721601f89168261362e565b8355505b6001600288020188555050505b505050505050565b7f4d696e696d756e20636f6e747269627574696f6e20697320302e35206574686560008201527f7200000000000000000000000000000000000000000000000000000000000000602082015250565b60006137966021836126d7565b91506137a18261373a565b604082019050919050565b600060208201905081810360008301526137c581613789565b9050919050565b7f54686520676f616c20697320616368696576656420616c726561647900000000600082015250565b6000613802601c836126d7565b915061380d826137cc565b602082019050919050565b60006020820190508181036000830152613831816137f5565b9050919050565b600061384382612619565b915061384e83612619565b9250828201905080821115613866576138656132e2565b5b92915050565b7f54686520676f616c206973206e6f742061636869657665640000000000000000600082015250565b60006138a26018836126d7565b91506138ad8261386c565b602082019050919050565b600060208201905081810360008301526138d181613895565b9050919050565b7f416c726561647920726571756573746564000000000000000000000000000000600082015250565b600061390e6011836126d7565b9150613919826138d8565b602082019050919050565b6000602082019050818103600083015261393d81613901565b905091905056fea2646970667358221220201cdad240f3f8e7621c4ec6091d292e494add173e1b846589dccf89cddd010664736f6c63430008120033",
  "immutableReferences": {},
  "source": "// SPDX-License-Identifier: MIT\r\n\r\npragma solidity >=0.7.0 <0.9.0;\r\n\r\ncontract Etherfund {\r\n    uint256 minimuContribution = 0.5 ether; // minimum value for contribution \r\n    uint256 totalCampaigns = 0; // for creating id for campaigns (increments after inserting each campaign to array)\r\n\r\n    // Campaign structure to save data of campaign\r\n    struct Campaign {\r\n        uint256 id;\r\n        uint256 createdAt; // in timestamp\r\n        address payable fundRaiser; // address of fundraiser\r\n        string title;\r\n        string desc;\r\n        string imageURL;\r\n        string category;\r\n        uint256 amountRequired;\r\n        uint256 collectedAmount;\r\n        uint256 deadline;\r\n        uint256 noOfVoters; // total voters\r\n        bool isCompleted;\r\n    }\r\n    Campaign[] public campaigns; // to save each campaign\r\n\r\n    struct CampaignMoreDetails {\r\n        uint256 campaignId;\r\n        bool isRequestedToVote;\r\n        bool isGoalAchieved;\r\n    }\r\n    CampaignMoreDetails[] public campaignMoreDetails;\r\n\r\n    struct Contributor {\r\n        address contributor;\r\n        uint256 amountContributed;\r\n    }\r\n    mapping(uint256 => Contributor[]) public contributors; // campaign id maps contributors\r\n\r\n    struct Request {\r\n        uint256 campaignId;\r\n        address fundRaiser;\r\n        uint256 amount;\r\n        uint256 deadline;\r\n        bool isVoted;\r\n    }\r\n    mapping(address => Request[]) public requests; // msg.sender maps requests\r\n\r\n    // create a new campaign\r\n    function createCampaign(\r\n        string memory _title,\r\n        string memory _desc,\r\n        string memory _category,\r\n        string memory _imageURL,\r\n        uint256 _deadline,\r\n        uint256 _amountRequired\r\n    ) public {\r\n        uint256 twoDaysInSeconds = 2 * 24 * 60 * 60; // 2 days in seconds\r\n        require(\r\n            _deadline > (block.timestamp - twoDaysInSeconds),\r\n            \"Project must be posted before two days\"\r\n        );\r\n\r\n        Campaign memory newCampaign = Campaign(\r\n            totalCampaigns,\r\n            block.timestamp, // timestamp when the new block is created\r\n            payable(msg.sender), // address of fundraiser is converting to payable for withdrawl in future\r\n            _title,\r\n            _desc,\r\n            _imageURL,\r\n            _category,\r\n            _amountRequired,\r\n            0, // collected amount initially 0\r\n            _deadline,\r\n            0, // no of voters initially 0,\r\n            false // campaign completed is initially false\r\n        );\r\n\r\n        campaigns.push(newCampaign); // push newly created campaign to array\r\n\r\n        CampaignMoreDetails memory newCampaignMoreDetails = CampaignMoreDetails(\r\n            totalCampaigns,\r\n            false, // is the campaign requested to vote\r\n            false // is the campaign achieved the goal\r\n        );\r\n\r\n        campaignMoreDetails.push(newCampaignMoreDetails);\r\n\r\n        totalCampaigns++; // increment no of campaigns\r\n    }\r\n\r\n    // contribute ether\r\n    function contribute(uint256 campaignId) public payable returns (Contributor memory contributed) {\r\n        require(\r\n            msg.value >= minimuContribution,\r\n            \"Minimun contribution is 0.5 ether\"\r\n        );\r\n        require(\r\n            campaignMoreDetails[campaignId].isGoalAchieved == false,\r\n            \"The goal is achieved already\"\r\n        );\r\n\r\n        // incrementing collected amount of campaingn\r\n        campaigns[campaignId].collectedAmount += msg.value;\r\n        bool newContributer = true;\r\n        Contributor[] storage contributorsList = contributors[campaignId];\r\n\r\n        for (uint256 i = 0; i < contributorsList.length; i++) {\r\n            if (contributorsList[i].contributor == msg.sender) {\r\n                // increment contributed amount of a person for 2nd contribution\r\n                contributorsList[i].amountContributed += msg.value;\r\n                newContributer = false;\r\n                break;\r\n            }\r\n        }\r\n        if (newContributer) {\r\n            // creating new contributor\r\n            Contributor memory contributor = Contributor({\r\n                contributor: msg.sender,\r\n                amountContributed: msg.value\r\n            });\r\n            contributorsList.push(contributor);\r\n        }\r\n\r\n        if (\r\n            campaigns[campaignId].collectedAmount >=\r\n            campaigns[campaignId].amountRequired\r\n        ) {\r\n            campaignMoreDetails[campaignId].isGoalAchieved = true; \r\n        }\r\n\r\n        for (uint256 i = 0; i < contributorsList.length; i++) {\r\n            if (contributorsList[i].contributor == msg.sender) {\r\n                // increment contributed amount of a person for 2nd contribution\r\n                return contributorsList[i];\r\n        }\r\n        }\r\n    }\r\n\r\n    // Request to vote\r\n    function requestVote(uint256 _campaignId) public {\r\n        require(\r\n            campaigns[_campaignId].fundRaiser == msg.sender,\r\n            \"You are not the fundraiser\"\r\n        );\r\n        require(\r\n            campaigns[_campaignId].collectedAmount >=\r\n                campaigns[_campaignId].amountRequired,\r\n            \"The goal is not achieved\"\r\n        );\r\n        require(\r\n            campaignMoreDetails[_campaignId].isRequestedToVote = true,\r\n            \"Already requested\"\r\n        );\r\n\r\n        Contributor[] storage contributorsList = contributors[_campaignId]; // get all contributors\r\n        for (uint256 i = 0; i < contributorsList.length; i++) {\r\n            Request memory newRequest = Request(\r\n                _campaignId,\r\n                msg.sender,\r\n                contributorsList[i].amountContributed,\r\n                campaigns[_campaignId].deadline,\r\n                false // initially voted is false\r\n            );\r\n            requests[contributorsList[i].contributor].push(newRequest);\r\n        }\r\n\r\n        campaignMoreDetails[_campaignId].isRequestedToVote = true;\r\n    }\r\n\r\n    // vote for a campaign\r\n    function voteForCampaign(uint256 campaignId) public {\r\n        Request[] storage requestList = requests[msg.sender];\r\n\r\n        for (uint256 i = 0; i < requestList.length; i++) {\r\n            if (\r\n                requestList[i].campaignId == campaignId &&\r\n                requestList[i].isVoted == false\r\n            ) {\r\n                requestList[i].isVoted = true;\r\n                campaigns[campaignId].noOfVoters++;\r\n            }\r\n        }\r\n    }\r\n\r\n    // withdraw after voted half of the contributors\r\n    function withdrawEther(uint256 campaignId) public {\r\n        require(\r\n            msg.sender == campaigns[campaignId].fundRaiser,\r\n            \"You are not the fundraiser\"\r\n        );\r\n        require(\r\n            campaigns[campaignId].noOfVoters >\r\n                (contributors[campaignId].length / 2),\r\n            \"Not enough vote to withdraw\"\r\n        );\r\n\r\n        campaigns[campaignId].fundRaiser.transfer(\r\n            campaigns[campaignId].amountRequired\r\n        );\r\n\r\n        campaigns[campaignId].isCompleted = true;\r\n    }\r\n\r\n    // get all incompleted campaigns\r\n    function getIncompleteCampaigns() public view returns (Campaign[] memory) {\r\n        uint256 count = 0; // total count of incomplete campaigns\r\n        for (uint256 i = 0; i < campaigns.length; i++) {\r\n            if (!campaigns[i].isCompleted) {\r\n                count++;\r\n            }\r\n        }\r\n\r\n        Campaign[] memory result = new Campaign[](count); // create an instance of Campaign with size count\r\n        uint256 j = 0;\r\n        for (uint256 i = 0; i < campaigns.length; i++) {\r\n            if (!campaigns[i].isCompleted) {\r\n                result[j] = campaigns[i];\r\n                j++;\r\n            }\r\n        }\r\n        return result;\r\n    }\r\n\r\n    // get all campaigns created by a user\r\n    function getMyCampaigns() public view returns (Campaign[] memory) {\r\n        // get count of campaigns created by user(msg.sender)\r\n        uint256 count = 0;\r\n        for (uint256 i = 0; i < campaigns.length; i++)\r\n            if (campaigns[i].fundRaiser == msg.sender) count++;\r\n\r\n        Campaign[] memory myCampaigns = new Campaign[](count);\r\n        uint256 j = 0;\r\n        for (uint256 i = 0; i < count; i++) {\r\n            if (campaigns[i].fundRaiser == msg.sender) {\r\n                myCampaigns[j] = campaigns[i];\r\n                j++;\r\n            }\r\n        }\r\n        return myCampaigns;\r\n    }\r\n\r\n    // get all requests\r\n    function getMyRequests() public view returns (Request[] memory) {\r\n        return requests[msg.sender];\r\n    }\r\n\r\n    // get details about a campaign with campaignId\r\n    function getCampaignDetails(uint256 _campaignId)\r\n        public\r\n        view\r\n        returns (Campaign memory)\r\n    {\r\n        return campaigns[_campaignId];\r\n    }\r\n\r\n    function getCampaignMoreDetails(uint _campaignId) public view returns(CampaignMoreDetails memory) {\r\n        return campaignMoreDetails[_campaignId];\r\n    }\r\n\r\n    function getWithdrawStatus(uint _campaignId) public view returns(bool) {\r\n        return campaigns[_campaignId].noOfVoters > (contributors[_campaignId].length / 2);\r\n    }\r\n}",
  "sourcePath": "C:\\Users\\sandh\\Desktop\\crowdfund\\contracts\\Etherfund.sol",
  "compiler": {
    "name": "solc",
    "version": "0.8.18+commit.87f61d96.Emscripten.clang"
  },
  "schemaVersion": "3.4.12",
  "updatedAt": "2023-06-21T07:27:00.456Z",
  "networkType": "ethereum",
  "devdoc": {
    "kind": "dev",
    "methods": {},
    "version": 1
  },
  "userdoc": {
    "kind": "user",
    "methods": {},
    "version": 1
  }
}